{
  "_format": "hh-sol-artifact-1",
  "contractName": "Voting",
  "sourceName": "contracts/Voting.sol",
  "abi": [
    {
      "inputs": [
        {
          "internalType": "string[]",
          "name": "_proposalNames",
          "type": "string[]"
        }
      ],
      "stateMutability": "nonpayable",
      "type": "constructor"
    },
    {
      "anonymous": false,
      "inputs": [
        {
          "indexed": true,
          "internalType": "address",
          "name": "voter",
          "type": "address"
        }
      ],
      "name": "Commit",
      "type": "event"
    },
    {
      "anonymous": false,
      "inputs": [
        {
          "indexed": false,
          "internalType": "enum Voting.Phase",
          "name": "newPhase",
          "type": "uint8"
        }
      ],
      "name": "PhaseAdvanced",
      "type": "event"
    },
    {
      "anonymous": false,
      "inputs": [
        {
          "indexed": true,
          "internalType": "address",
          "name": "voter",
          "type": "address"
        },
        {
          "indexed": true,
          "internalType": "uint256",
          "name": "proposalId",
          "type": "uint256"
        }
      ],
      "name": "Reveal",
      "type": "event"
    },
    {
      "inputs": [
        {
          "internalType": "address",
          "name": "voter",
          "type": "address"
        }
      ],
      "name": "addEligible",
      "outputs": [],
      "stateMutability": "nonpayable",
      "type": "function"
    },
    {
      "inputs": [
        {
          "internalType": "bytes32",
          "name": "commit",
          "type": "bytes32"
        }
      ],
      "name": "commitVote",
      "outputs": [],
      "stateMutability": "nonpayable",
      "type": "function"
    },
    {
      "inputs": [
        {
          "internalType": "address",
          "name": "",
          "type": "address"
        }
      ],
      "name": "commits",
      "outputs": [
        {
          "internalType": "bytes32",
          "name": "",
          "type": "bytes32"
        }
      ],
      "stateMutability": "view",
      "type": "function"
    },
    {
      "inputs": [
        {
          "internalType": "address",
          "name": "",
          "type": "address"
        }
      ],
      "name": "eligible",
      "outputs": [
        {
          "internalType": "bool",
          "name": "",
          "type": "bool"
        }
      ],
      "stateMutability": "view",
      "type": "function"
    },
    {
      "inputs": [],
      "name": "endVoting",
      "outputs": [],
      "stateMutability": "nonpayable",
      "type": "function"
    },
    {
      "inputs": [],
      "name": "getCurrentPhase",
      "outputs": [
        {
          "internalType": "string",
          "name": "",
          "type": "string"
        }
      ],
      "stateMutability": "view",
      "type": "function"
    },
    {
      "inputs": [],
      "name": "getProposals",
      "outputs": [
        {
          "internalType": "string[]",
          "name": "names",
          "type": "string[]"
        },
        {
          "internalType": "uint256[]",
          "name": "counts",
          "type": "uint256[]"
        }
      ],
      "stateMutability": "view",
      "type": "function"
    },
    {
      "inputs": [],
      "name": "owner",
      "outputs": [
        {
          "internalType": "address",
          "name": "",
          "type": "address"
        }
      ],
      "stateMutability": "view",
      "type": "function"
    },
    {
      "inputs": [],
      "name": "phase",
      "outputs": [
        {
          "internalType": "enum Voting.Phase",
          "name": "",
          "type": "uint8"
        }
      ],
      "stateMutability": "view",
      "type": "function"
    },
    {
      "inputs": [],
      "name": "proposalCount",
      "outputs": [
        {
          "internalType": "uint256",
          "name": "",
          "type": "uint256"
        }
      ],
      "stateMutability": "view",
      "type": "function"
    },
    {
      "inputs": [
        {
          "internalType": "uint256",
          "name": "",
          "type": "uint256"
        }
      ],
      "name": "proposals",
      "outputs": [
        {
          "internalType": "string",
          "name": "name",
          "type": "string"
        },
        {
          "internalType": "uint256",
          "name": "voteCount",
          "type": "uint256"
        }
      ],
      "stateMutability": "view",
      "type": "function"
    },
    {
      "inputs": [
        {
          "internalType": "uint256",
          "name": "proposalId",
          "type": "uint256"
        },
        {
          "internalType": "string",
          "name": "secret",
          "type": "string"
        }
      ],
      "name": "revealVote",
      "outputs": [],
      "stateMutability": "nonpayable",
      "type": "function"
    },
    {
      "inputs": [
        {
          "internalType": "address",
          "name": "",
          "type": "address"
        }
      ],
      "name": "revealed",
      "outputs": [
        {
          "internalType": "bool",
          "name": "",
          "type": "bool"
        }
      ],
      "stateMutability": "view",
      "type": "function"
    },
    {
      "inputs": [],
      "name": "startCommitPhase",
      "outputs": [],
      "stateMutability": "nonpayable",
      "type": "function"
    },
    {
      "inputs": [],
      "name": "startRevealPhase",
      "outputs": [],
      "stateMutability": "nonpayable",
      "type": "function"
    }
  ],
  "bytecode": "0x60806040523480156200001157600080fd5b50604051620025d1380380620025d18339818101604052810190620000379190620003e1565b33600060016101000a81548173ffffffffffffffffffffffffffffffffffffffff021916908373ffffffffffffffffffffffffffffffffffffffff16021790555060005b81518110156200011d5760016040518060400160405280848481518110620000a857620000a762000432565b5b60200260200101518152602001600081525090806001815401808255809150506001900390600052602060002090600202016000909190919091506000820151816000019081620000fa9190620006ac565b5060208201518160010155505080806200011490620007c2565b9150506200007b565b5060008060006101000a81548160ff021916908360038111156200014657620001456200080f565b5b0217905550506200083e565b6000604051905090565b600080fd5b600080fd5b600080fd5b6000601f19601f8301169050919050565b7f4e487b7100000000000000000000000000000000000000000000000000000000600052604160045260246000fd5b620001b6826200016b565b810181811067ffffffffffffffff82111715620001d857620001d76200017c565b5b80604052505050565b6000620001ed62000152565b9050620001fb8282620001ab565b919050565b600067ffffffffffffffff8211156200021e576200021d6200017c565b5b602082029050602081019050919050565b600080fd5b600080fd5b600067ffffffffffffffff8211156200025757620002566200017c565b5b62000262826200016b565b9050602081019050919050565b60005b838110156200028f57808201518184015260208101905062000272565b60008484015250505050565b6000620002b2620002ac8462000239565b620001e1565b905082815260208101848484011115620002d157620002d062000234565b5b620002de8482856200026f565b509392505050565b600082601f830112620002fe57620002fd62000166565b5b8151620003108482602086016200029b565b91505092915050565b6000620003306200032a8462000200565b620001e1565b905080838252602082019050602084028301858111156200035657620003556200022f565b5b835b81811015620003a457805167ffffffffffffffff8111156200037f576200037e62000166565b5b8086016200038e8982620002e6565b8552602085019450505060208101905062000358565b5050509392505050565b600082601f830112620003c657620003c562000166565b5b8151620003d884826020860162000319565b91505092915050565b600060208284031215620003fa57620003f96200015c565b5b600082015167ffffffffffffffff8111156200041b576200041a62000161565b5b6200042984828501620003ae565b91505092915050565b7f4e487b7100000000000000000000000000000000000000000000000000000000600052603260045260246000fd5b600081519050919050565b7f4e487b7100000000000000000000000000000000000000000000000000000000600052602260045260246000fd5b60006002820490506001821680620004b457607f821691505b602082108103620004ca57620004c96200046c565b5b50919050565b60008190508160005260206000209050919050565b60006020601f8301049050919050565b600082821b905092915050565b600060088302620005347fffffffffffffffffffffffffffffffffffffffffffffffffffffffffffffffff82620004f5565b620005408683620004f5565b95508019841693508086168417925050509392505050565b6000819050919050565b6000819050919050565b60006200058d62000587620005818462000558565b62000562565b62000558565b9050919050565b6000819050919050565b620005a9836200056c565b620005c1620005b88262000594565b84845462000502565b825550505050565b600090565b620005d8620005c9565b620005e58184846200059e565b505050565b5b818110156200060d5762000601600082620005ce565b600181019050620005eb565b5050565b601f8211156200065c576200062681620004d0565b6200063184620004e5565b8101602085101562000641578190505b620006596200065085620004e5565b830182620005ea565b50505b505050565b600082821c905092915050565b6000620006816000198460080262000661565b1980831691505092915050565b60006200069c83836200066e565b9150826002028217905092915050565b620006b78262000461565b67ffffffffffffffff811115620006d357620006d26200017c565b5b620006df82546200049b565b620006ec82828562000611565b600060209050601f8311600181146200072457600084156200070f578287015190505b6200071b85826200068e565b8655506200078b565b601f1984166200073486620004d0565b60005b828110156200075e5784890151825560018201915060208501945060208101905062000737565b868310156200077e57848901516200077a601f8916826200066e565b8355505b6001600288020188555050505b505050505050565b7f4e487b7100000000000000000000000000000000000000000000000000000000600052601160045260246000fd5b6000620007cf8262000558565b91507fffffffffffffffffffffffffffffffffffffffffffffffffffffffffffffffff820362000804576200080362000793565b5b600182019050919050565b7f4e487b7100000000000000000000000000000000000000000000000000000000600052602160045260246000fd5b611d83806200084e6000396000f3fe608060405234801561001057600080fd5b50600436106100f55760003560e01c8063772c816111610097578063b1c9fe6e11610066578063b1c9fe6e14610274578063c3403ddf14610292578063c6fd5d4e1461029c578063da35c664146102a6576100f5565b8063772c8161146101ec5780637b43a8e6146102085780638da5cb5b14610238578063a3a40ea514610256576100f5565b80633e858923116100d35780633e8589231461018b57806352826f05146101a757806362564c48146101c35780637183f43a146101e2576100f5565b8063013cf08b146100fa5780630713b1391461012b57806327c0583f1461015b575b600080fd5b610114600480360381019061010f91906112c9565b6102c4565b604051610122929190611395565b60405180910390f35b61014560048036038101906101409190611423565b610380565b604051610152919061146b565b60405180910390f35b61017560048036038101906101709190611423565b6103a0565b604051610182919061146b565b60405180910390f35b6101a560048036038101906101a091906114bc565b6103c0565b005b6101c160048036038101906101bc9190611423565b6105d0565b005b6101cb610731565b6040516101d99291906116b3565b60405180910390f35b6101ea61090e565b005b6102066004803603810190610201919061174f565b610a84565b005b610222600480360381019061021d9190611423565b610da1565b60405161022f91906117be565b60405180910390f35b610240610db9565b60405161024d91906117e8565b60405180910390f35b61025e610ddf565b60405161026b9190611803565b60405180910390f35b61027c610f7f565b604051610289919061189c565b60405180910390f35b61029a610f90565b005b6102a4611106565b005b6102ae61127c565b6040516102bb91906118b7565b60405180910390f35b600181815481106102d457600080fd5b90600052602060002090600202016000915090508060000180546102f790611901565b80601f016020809104026020016040519081016040528092919081815260200182805461032390611901565b80156103705780601f1061034557610100808354040283529160200191610370565b820191906000526020600020905b81548152906001019060200180831161035357829003601f168201915b5050505050908060010154905082565b60046020528060005260406000206000915054906101000a900460ff1681565b60036020528060005260406000206000915054906101000a900460ff1681565b60018060038111156103d5576103d4611825565b5b60008054906101000a900460ff1660038111156103f5576103f4611825565b5b14610435576040517f08c379a000000000000000000000000000000000000000000000000000000000815260040161042c9061197e565b60405180910390fd5b600460003373ffffffffffffffffffffffffffffffffffffffff1673ffffffffffffffffffffffffffffffffffffffff16815260200190815260200160002060009054906101000a900460ff166104c1576040517f08c379a00000000000000000000000000000000000000000000000000000000081526004016104b8906119ea565b60405180910390fd5b6000801b600260003373ffffffffffffffffffffffffffffffffffffffff1673ffffffffffffffffffffffffffffffffffffffff1681526020019081526020016000205414610545576040517f08c379a000000000000000000000000000000000000000000000000000000000815260040161053c90611a56565b60405180910390fd5b81600260003373ffffffffffffffffffffffffffffffffffffffff1673ffffffffffffffffffffffffffffffffffffffff168152602001908152602001600020819055503373ffffffffffffffffffffffffffffffffffffffff167f599481bd81d46ea2372b7f45ab8900ac58961566f184806290d9ede4e0fc764160405160405180910390a25050565b600060019054906101000a900473ffffffffffffffffffffffffffffffffffffffff1673ffffffffffffffffffffffffffffffffffffffff163373ffffffffffffffffffffffffffffffffffffffff1614610660576040517f08c379a000000000000000000000000000000000000000000000000000000000815260040161065790611ac2565b60405180910390fd5b600080600381111561067557610674611825565b5b60008054906101000a900460ff16600381111561069557610694611825565b5b146106d5576040517f08c379a00000000000000000000000000000000000000000000000000000000081526004016106cc9061197e565b60405180910390fd5b6001600460008473ffffffffffffffffffffffffffffffffffffffff1673ffffffffffffffffffffffffffffffffffffffff16815260200190815260200160002060006101000a81548160ff0219169083151502179055505050565b606080600060018054905090508067ffffffffffffffff81111561075857610757611ae2565b5b60405190808252806020026020018201604052801561078b57816020015b60608152602001906001900390816107765790505b5092508067ffffffffffffffff8111156107a8576107a7611ae2565b5b6040519080825280602002602001820160405280156107d65781602001602082028036833780820191505090505b50915060005b8181101561090857600181815481106107f8576107f7611b11565b5b9060005260206000209060020201600001805461081490611901565b80601f016020809104026020016040519081016040528092919081815260200182805461084090611901565b801561088d5780601f106108625761010080835404028352916020019161088d565b820191906000526020600020905b81548152906001019060200180831161087057829003601f168201915b50505050508482815181106108a5576108a4611b11565b5b6020026020010181905250600181815481106108c4576108c3611b11565b5b9060005260206000209060020201600101548382815181106108e9576108e8611b11565b5b602002602001018181525050808061090090611b6f565b9150506107dc565b50509091565b600060019054906101000a900473ffffffffffffffffffffffffffffffffffffffff1673ffffffffffffffffffffffffffffffffffffffff163373ffffffffffffffffffffffffffffffffffffffff161461099e576040517f08c379a000000000000000000000000000000000000000000000000000000000815260040161099590611ac2565b60405180910390fd5b60008060038111156109b3576109b2611825565b5b60008054906101000a900460ff1660038111156109d3576109d2611825565b5b14610a13576040517f08c379a0000000000000000000000000000000000000000000000000000000008152600401610a0a9061197e565b60405180910390fd5b60016000806101000a81548160ff02191690836003811115610a3857610a37611825565b5b02179055507fd0e47a271d69b0e6e3f9bd81c7c695bfbcb309e6ee66a23e6ad80a8f9019057460008054906101000a900460ff16604051610a79919061189c565b60405180910390a150565b6002806003811115610a9957610a98611825565b5b60008054906101000a900460ff166003811115610ab957610ab8611825565b5b14610af9576040517f08c379a0000000000000000000000000000000000000000000000000000000008152600401610af09061197e565b60405180910390fd5b600460003373ffffffffffffffffffffffffffffffffffffffff1673ffffffffffffffffffffffffffffffffffffffff16815260200190815260200160002060009054906101000a900460ff16610b85576040517f08c379a0000000000000000000000000000000000000000000000000000000008152600401610b7c906119ea565b60405180910390fd5b600360003373ffffffffffffffffffffffffffffffffffffffff1673ffffffffffffffffffffffffffffffffffffffff16815260200190815260200160002060009054906101000a900460ff1615610c12576040517f08c379a0000000000000000000000000000000000000000000000000000000008152600401610c0990611c03565b60405180910390fd5b6000848484604051602001610c2993929190611c83565b60405160208183030381529060405280519060200120905080600260003373ffffffffffffffffffffffffffffffffffffffff1673ffffffffffffffffffffffffffffffffffffffff1681526020019081526020016000205414610cc2576040517f08c379a0000000000000000000000000000000000000000000000000000000008152600401610cb990611cf9565b60405180910390fd5b6001600360003373ffffffffffffffffffffffffffffffffffffffff1673ffffffffffffffffffffffffffffffffffffffff16815260200190815260200160002060006101000a81548160ff0219169083151502179055506001808681548110610d2f57610d2e611b11565b5b90600052602060002090600202016001016000828254610d4f9190611d19565b92505081905550843373ffffffffffffffffffffffffffffffffffffffff167ff254aace0ef98d6ac1a0d84c95648f8e3f7a1881dbb43393709ecd004b00f10360405160405180910390a35050505050565b60026020528060005260406000206000915090505481565b600060019054906101000a900473ffffffffffffffffffffffffffffffffffffffff1681565b606060006003811115610df557610df4611825565b5b60008054906101000a900460ff166003811115610e1557610e14611825565b5b03610e57576040518060400160405280600781526020017f43726561746564000000000000000000000000000000000000000000000000008152509050610f7c565b60016003811115610e6b57610e6a611825565b5b60008054906101000a900460ff166003811115610e8b57610e8a611825565b5b03610ecd576040518060400160405280600c81526020017f436f6d6d697420506861736500000000000000000000000000000000000000008152509050610f7c565b60026003811115610ee157610ee0611825565b5b60008054906101000a900460ff166003811115610f0157610f00611825565b5b03610f43576040518060400160405280600c81526020017f52657665616c20506861736500000000000000000000000000000000000000008152509050610f7c565b6040518060400160405280600581526020017f456e64656400000000000000000000000000000000000000000000000000000081525090505b90565b60008054906101000a900460ff1681565b600060019054906101000a900473ffffffffffffffffffffffffffffffffffffffff1673ffffffffffffffffffffffffffffffffffffffff163373ffffffffffffffffffffffffffffffffffffffff1614611020576040517f08c379a000000000000000000000000000000000000000000000000000000000815260040161101790611ac2565b60405180910390fd5b600280600381111561103557611034611825565b5b60008054906101000a900460ff16600381111561105557611054611825565b5b14611095576040517f08c379a000000000000000000000000000000000000000000000000000000000815260040161108c9061197e565b60405180910390fd5b60036000806101000a81548160ff021916908360038111156110ba576110b9611825565b5b02179055507fd0e47a271d69b0e6e3f9bd81c7c695bfbcb309e6ee66a23e6ad80a8f9019057460008054906101000a900460ff166040516110fb919061189c565b60405180910390a150565b600060019054906101000a900473ffffffffffffffffffffffffffffffffffffffff1673ffffffffffffffffffffffffffffffffffffffff163373ffffffffffffffffffffffffffffffffffffffff1614611196576040517f08c379a000000000000000000000000000000000000000000000000000000000815260040161118d90611ac2565b60405180910390fd5b60018060038111156111ab576111aa611825565b5b60008054906101000a900460ff1660038111156111cb576111ca611825565b5b1461120b576040517f08c379a00000000000000000000000000000000000000000000000000000000081526004016112029061197e565b60405180910390fd5b60026000806101000a81548160ff021916908360038111156112305761122f611825565b5b02179055507fd0e47a271d69b0e6e3f9bd81c7c695bfbcb309e6ee66a23e6ad80a8f9019057460008054906101000a900460ff16604051611271919061189c565b60405180910390a150565b6000600180549050905090565b600080fd5b600080fd5b6000819050919050565b6112a681611293565b81146112b157600080fd5b50565b6000813590506112c38161129d565b92915050565b6000602082840312156112df576112de611289565b5b60006112ed848285016112b4565b91505092915050565b600081519050919050565b600082825260208201905092915050565b60005b83811015611330578082015181840152602081019050611315565b60008484015250505050565b6000601f19601f8301169050919050565b6000611358826112f6565b6113628185611301565b9350611372818560208601611312565b61137b8161133c565b840191505092915050565b61138f81611293565b82525050565b600060408201905081810360008301526113af818561134d565b90506113be6020830184611386565b9392505050565b600073ffffffffffffffffffffffffffffffffffffffff82169050919050565b60006113f0826113c5565b9050919050565b611400816113e5565b811461140b57600080fd5b50565b60008135905061141d816113f7565b92915050565b60006020828403121561143957611438611289565b5b60006114478482850161140e565b91505092915050565b60008115159050919050565b61146581611450565b82525050565b6000602082019050611480600083018461145c565b92915050565b6000819050919050565b61149981611486565b81146114a457600080fd5b50565b6000813590506114b681611490565b92915050565b6000602082840312156114d2576114d1611289565b5b60006114e0848285016114a7565b91505092915050565b600081519050919050565b600082825260208201905092915050565b6000819050602082019050919050565b600082825260208201905092915050565b6000611531826112f6565b61153b8185611515565b935061154b818560208601611312565b6115548161133c565b840191505092915050565b600061156b8383611526565b905092915050565b6000602082019050919050565b600061158b826114e9565b61159581856114f4565b9350836020820285016115a785611505565b8060005b858110156115e357848403895281516115c4858261155f565b94506115cf83611573565b925060208a019950506001810190506115ab565b50829750879550505050505092915050565b600081519050919050565b600082825260208201905092915050565b6000819050602082019050919050565b61162a81611293565b82525050565b600061163c8383611621565b60208301905092915050565b6000602082019050919050565b6000611660826115f5565b61166a8185611600565b935061167583611611565b8060005b838110156116a657815161168d8882611630565b975061169883611648565b925050600181019050611679565b5085935050505092915050565b600060408201905081810360008301526116cd8185611580565b905081810360208301526116e18184611655565b90509392505050565b600080fd5b600080fd5b600080fd5b60008083601f84011261170f5761170e6116ea565b5b8235905067ffffffffffffffff81111561172c5761172b6116ef565b5b602083019150836001820283011115611748576117476116f4565b5b9250929050565b60008060006040848603121561176857611767611289565b5b6000611776868287016112b4565b935050602084013567ffffffffffffffff8111156117975761179661128e565b5b6117a3868287016116f9565b92509250509250925092565b6117b881611486565b82525050565b60006020820190506117d360008301846117af565b92915050565b6117e2816113e5565b82525050565b60006020820190506117fd60008301846117d9565b92915050565b6000602082019050818103600083015261181d818461134d565b905092915050565b7f4e487b7100000000000000000000000000000000000000000000000000000000600052602160045260246000fd5b6004811061186557611864611825565b5b50565b600081905061187682611854565b919050565b600061188682611868565b9050919050565b6118968161187b565b82525050565b60006020820190506118b1600083018461188d565b92915050565b60006020820190506118cc6000830184611386565b92915050565b7f4e487b7100000000000000000000000000000000000000000000000000000000600052602260045260246000fd5b6000600282049050600182168061191957607f821691505b60208210810361192c5761192b6118d2565b5b50919050565b7f77726f6e67207068617365000000000000000000000000000000000000000000600082015250565b6000611968600b83611301565b915061197382611932565b602082019050919050565b600060208201905081810360008301526119978161195b565b9050919050565b7f6e6f7420656c696769626c650000000000000000000000000000000000000000600082015250565b60006119d4600c83611301565b91506119df8261199e565b602082019050919050565b60006020820190508181036000830152611a03816119c7565b9050919050565b7f616c726561647920636f6d6d6974746564000000000000000000000000000000600082015250565b6000611a40601183611301565b9150611a4b82611a0a565b602082019050919050565b60006020820190508181036000830152611a6f81611a33565b9050919050565b7f6f6e6c79206f776e657200000000000000000000000000000000000000000000600082015250565b6000611aac600a83611301565b9150611ab782611a76565b602082019050919050565b60006020820190508181036000830152611adb81611a9f565b9050919050565b7f4e487b7100000000000000000000000000000000000000000000000000000000600052604160045260246000fd5b7f4e487b7100000000000000000000000000000000000000000000000000000000600052603260045260246000fd5b7f4e487b7100000000000000000000000000000000000000000000000000000000600052601160045260246000fd5b6000611b7a82611293565b91507fffffffffffffffffffffffffffffffffffffffffffffffffffffffffffffffff8203611bac57611bab611b40565b5b600182019050919050565b7f616c72656164792072657665616c656400000000000000000000000000000000600082015250565b6000611bed601083611301565b9150611bf882611bb7565b602082019050919050565b60006020820190508181036000830152611c1c81611be0565b9050919050565b6000819050919050565b611c3e611c3982611293565b611c23565b82525050565b600081905092915050565b82818337600083830152505050565b6000611c6a8385611c44565b9350611c77838584611c4f565b82840190509392505050565b6000611c8f8286611c2d565b602082019150611ca0828486611c5e565b9150819050949350505050565b7f636f6d6d6974206d69736d617463680000000000000000000000000000000000600082015250565b6000611ce3600f83611301565b9150611cee82611cad565b602082019050919050565b60006020820190508181036000830152611d1281611cd6565b9050919050565b6000611d2482611293565b9150611d2f83611293565b9250828201905080821115611d4757611d46611b40565b5b9291505056fea26469706673582212208de598358c80d21a9eb680a4eb1a8f82ef6ea7e060ddb4f3bd42f54f04807efd64736f6c63430008140033",
  "linkReferences": {},
  "deployedLinkReferences": {}
}